:020000040000FA
:100000000C945D000C9485000C9485000C94850084
:100010000C9485000C9485000C9485000C9485004C
:100020000C9485000C9485000C9485000C941303AB
:100030000C9485000C9485000C9485000C9485002C
:100040000C9471020C9485000C94E1020C94BB0298
:100050000C9485000C9485000C9485000C9485000C
:100060000C9485000C9485000000000024002700FB
:100070002A0000000000250028002B0004040404CE
:100080000404040402020202020203030303030342
:10009000010204081020408001020408102001021F
:1000A00004081020000000080002010000030407FB
:1000B0000000000000000000CF0311241FBECFEF9E
:1000C000D8E0DEBFCDBF11E0A0E0B1E0EEE9FCE09A
:1000D00002C005900D92A631B107D9F721E0A6E143
:1000E000B1E001C01D92A53EB207E1F710E0CDE5F9
:1000F000D0E004C02197FE010E944706CC35D1070D
:10010000C9F70E942C040C944D060C940000E09159
:10011000E201EC3088F54091E30128E830E0241B4F
:10012000310947FD3395220F331F220F331F8217EA
:10013000930784F04091E40128E532E0241B310963
:1001400047FD3395220F331F220F331F821793076A
:100150000CF49C0122503109220F331F4FB7F89441
:100160008E2F90E0FC01EE0FFF1FE80FF91FE35404
:10017000FE4F328321834FBF089590E0FC01EC5580
:10018000FF4F2491FC01E057FF4F3491FC01E458EC
:10019000FF4FE491EE23C9F0222339F0233001F11F
:1001A000A8F4213019F1223029F1F0E0EE0FFF1F01
:1001B000EE58FF4FA591B4918FB7F894EC9161116F
:1001C00026C030953E233C938FBF08952730A9F079
:1001D0002830C9F0243049F7809180008F7D03C01A
:1001E000809180008F7780938000DFCF84B58F77F8
:1001F00084BDDBCF84B58F7DFBCF8091B0008F773E
:100200008093B000D2CF8091B0008F7DF9CF3E2B8C
:10021000DACF3FB7F89480911C0190911D01A09115
:100220001E01B0911F0126B5A89B05C02F3F19F0F4
:100230000196A11DB11D3FBFBA2FA92F982F882766
:10024000BC01CD01620F711D811D911D42E0660F41
:10025000771F881F991F4A95D1F708958F929F9213
:10026000AF92BF92CF92DF92EF92FF920E9409016C
:100270004B015C018CEDC82E85E0D82EE12CF12CD1
:100280000E940901681979098A099B09683E73402F
:1002900081059105A8F321E0C21AD108E108F1080F
:1002A00088EE880E83E0981EA11CB11CC114D104F5
:1002B000E104F10429F7FF90EF90DF90CF90BF9019
:1002C000AF909F908F900895AF92BF92CF92DF92A0
:1002D000EF92FF920F931F93CF93DF936C017B01FB
:1002E0008B01040F151FEB015E01AE18BF08C0178C
:1002F000D10759F06991D601ED91FC910190F081FF
:10030000E02DC6010995892B79F7C501DF91CF91C1
:100310001F910F91FF90EF90DF90CF90BF90AF9023
:100320000895FC01538D448D252F30E0842F90E0FB
:10033000821B930B541710F0CF96089501970895E0
:10034000FC01918D828D981761F0A28DAE0FBF2FA9
:10035000B11D5D968C91928D9F5F9F73928F90E0FF
:1003600008958FEF9FEF0895FC01918D828D98176E
:1003700031F0828DE80FF11D858D90E008958FEFAB
:100380009FEF0895FC01918D228D892F90E0805C74
:100390009F4F821B91098F739927089580E291E006
:1003A0000E94C20121E0892B09F420E0822F0895E8
:1003B00080E090E0892B29F00E94CE0181110C94FD
:1003C00000000895FC01A48DA80FB92FB11DA35AF8
:1003D000BF4F2C91848D90E001968F739927848F65
:1003E000A689B7892C93A089B1898C918370806488
:1003F0008C93938D848D981306C00288F389E02D29
:1004000080818F7D80830895EF92FF920F931F93D9
:10041000CF93DF93EC0181E0888F9B8D8C8D9813B7
:100420001AC0E889F989808185FF15C09FB7F894C3
:10043000EE89FF896083E889F9898081837080640F
:1004400080839FBF81E090E0DF91CF911F910F915A
:10045000FF90EF900895F62E0B8D10E00F5F1F4F69
:100460000F731127E02E8C8D8E110CC00FB607FC78
:10047000FACFE889F989808185FFF5CFCE010E9406
:10048000E201F1CFEB8DEC0FFD2FF11DE35AFF4F91
:10049000F0829FB7F8940B8FEA89FB898081806294
:1004A000CFCFCF93DF93EC01888D8823B9F0AA8951
:1004B000BB89E889F9898C9185FD03C0808186FD1F
:1004C0000DC00FB607FCF7CF8C9185FFF2CF80816E
:1004D00085FFEDCFCE010E94E201E9CFDF91CF9100
:1004E00008951F920F920FB60F9211242F933F93EE
:1004F0008F939F93AF93BF938091180190911901AF
:10050000A0911A01B0911B013091170123E0230F34
:100510002D3758F50196A11DB11D20931701809329
:10052000180190931901A0931A01B0931B018091B7
:100530001C0190911D01A0911E01B0911F01019617
:10054000A11DB11D80931C0190931D01A0931E015C
:10055000B0931F01BF91AF919F918F913F912F91C8
:100560000F900FBE0F901F90189526E8230F02964C
:10057000A11DB11DD2CF1F920F920FB60F92112461
:100580002F933F934F935F936F937F938F939F939B
:10059000AF93BF93EF93FF9380E291E00E94E2015B
:1005A000FF91EF91BF91AF919F918F917F916F914B
:1005B0005F914F913F912F910F900FBE0F901F9021
:1005C00018951F920F920FB60F9211242F938F93AD
:1005D0009F93EF93FF93E0913001F091310180817F
:1005E000E0913601F091370182FD1BC0908180912E
:1005F00039018F5F8F7320913A01821741F0E091AA
:100600003901F0E0E05EFE4F958F80933901FF9154
:10061000EF919F918F912F910F900FBE0F901F9090
:1006200018958081F4CF1F920F920FB60F9211246C
:100630002F933F934F935F936F937F938F939F93EA
:10064000AF93BF93CF93DF93EF93FF938091160106
:10065000C091E101D0E087FF24C010928500109284
:100660008400809116018F5F80931601809116019E
:10067000082E000C990B8C179D0724F4809116010D
:100680008C30C4F180918400909185000496803470
:100690009C4908F47AC0809184009091850004966A
:1006A00076C080911601082E000C990B8C179D07BF
:1006B000C4F6E09116018E2FEE0F990BFC01EE0FA0
:1006C000FF1FE80FF91FE354FE4F808186FFC9CF5B
:1006D000E09116018E2FEE0F990BFC01EE0FFF1F1C
:1006E000E80FF91FE354FE4F808160E08F730E9492
:1006F000BD00B7CF2091840030918500E0911601B4
:100700008E2FEE0F990BFC01EE0FFF1FE80FF91F64
:10071000E354FE4F81819281820F931F9093890051
:1007200080938800E09116018E2FEE0F990BFC014B
:10073000EE0FFF1FE80FF91FE354FE4F808186FF85
:1007400011C0E09116018E2FEE0F990BFC01EE0FF8
:10075000FF1FE80FF91FE354FE4F808161E08F73A4
:100760000E94BD00FF91EF91DF91CF91BF91AF91BA
:100770009F918F917F916F915F914F913F912F91B9
:100780000F900FBE0F901F90189580E49CE99093F6
:100790008900809388008FEF80931601E3CF109239
:1007A00023011092220188EE93E0A0E0B0E0809354
:1007B000240190932501A0932601B093270184E0A2
:1007C00091E0909321018093200185EC90E090933B
:1007D0002D0180932C0184EC90E090932F01809365
:1007E0002E0180EC90E0909331018093300181ECF8
:1007F00090E0909333018093320182EC90E09093EB
:1008000035018093340186EC90E09093370180931A
:1008100036011092390110923A0110923B01109268
:100820003C018091E1018C3098F491E0980F909315
:10083000E1018093E20190E0FC01EE0FFF1FE80F61
:10084000F91FE354FE4F88EB9BE092838183089568
:100850008FEF8093E2010895CF93DF93CDB7DEB79A
:10086000A3970FB6F894DEBF0FBECDBF789484B5C2
:10087000826084BD84B5816084BD85B5826085BD9C
:1008800085B5816085BD80916E00816080936E002A
:10089000109281008091810082608093810080911C
:1008A00081008160809381008091800081608093CD
:1008B00080008091B10084608093B1008091B0008D
:1008C00081608093B00080917A00846080937A0088
:1008D00080917A00826080937A0080917A008160B2
:1008E00080937A0080917A00806880937A001092D9
:1008F000C100E0913001F091310182E08083E0910C
:100900002C01F0912D011082E0912E01F0912F0128
:100910008FEC808310923801E0913401F091350121
:1009200086E08083E0913201F09133018081806123
:100930008083E0913201F09133018081886080836F
:10094000E0913201F0913301808180688083E091F1
:100950003201F091330180818F7D80838091E201AB
:100960008C3008F068C0E2E9F0E02491EEE7F0E0B6
:100970008491882399F090E0880F991FFC01E85931
:10098000FF4FA591B491FC01EE58FF4F85919491D2
:100990008FB7F894EC91E22BEC938FBF8091E2013A
:1009A000282F30E0F901EE0FFF1FE20FF31FE35491
:1009B000FE4F9081907C926090831092E3011092A0
:1009C000E4012CE0622F0E943B06829FB0011124BB
:1009D00030E020E0AB01420F531FFA01EE0FFF1F82
:1009E000E40FF51FE354FE4F908196FD16C02F5F74
:1009F0003F4F2C30310571F781110FC010928000EC
:100A000082E0809381001092850010928400B19A58
:100A100080916F00826080936F00E091E2018E2FE1
:100A200090E0FC01EE0FFF1FE80FF91FE354FE4FAB
:100A30008081806480835AE0C52ED12CE12CF12C7A
:100A400068E8262E312C74EB472E512C612C712C2A
:100A500020E420937C0080917A00806480937A0067
:100A600080917A0086FDFCCF80917800909179008A
:100A70009BA38AA34C01990FAA08BB08B7FE7FC0AD
:100A80006DE280E291E00E94040222273327A9014F
:100A9000281939094A095B0919A28E010F5D1F4FF8
:100AA000CA01B901A70196010E940A06605DF8011A
:100AB00062938F01211531054105510589F7011513
:100AC000110561F001900020E9F73197AF01401B5B
:100AD000510BB80180E291E00E94640142E050E0D5
:100AE00062E171E080E291E00E9464018091E301A3
:100AF0002AA13BA1223331050CF457C0F101E81BB8
:100B0000F10987FDF395CF01880F991F880F991F71
:100B10004C01990FAA08BB088091E40128E532E056
:100B2000281B310987FD3395220F331F220F331FF6
:100B3000032E000C440B550B281939094A095B098F
:100B4000AAE5B0E00E94FF05A30192010E94E00522
:100B5000DA01C901880D991DAA1DBB1D0E948700DD
:100B60000E942E0180E090E0892B09F471CF0E9451
:100B7000CE01882309F46CCF0E94000069CFA50143
:100B8000940119A28E010F5D1F4FCA01B901A7017F
:100B900096010E940A06605DF80162938F0121159B
:100BA00031054105510589F78ACF9101281B31098B
:100BB00087FD3395C901880F991F880F991FCECFE4
:100BC000052E97FB1EF400940E94F70557FD07D0F1
:100BD0000E940A0607FC03D04EF40C94F7055095CA
:100BE0004095309521953F4F4F4F5F4F0895909519
:100BF0008095709561957F4F8F4F9F4F08950E940C
:100C00002C06A59F900DB49F900DA49F800D911D63
:100C100011240895A1E21A2EAA1BBB1BFD010DC0D1
:100C2000AA1FBB1FEE1FFF1FA217B307E407F5079C
:100C300020F0A21BB30BE40BF50B661F771F881F78
:100C4000991F1A9469F760957095809590959B010E
:100C5000AC01BD01CF010895A29FB001B39FC001B7
:100C6000A39F700D811D1124911DB29F700D811DD8
:100C70001124911D0895991B79E004C0991F9617BE
:100C800008F0961B881F7A95C9F780950895EE0F96
:100C9000FF1F0590F491E02D0994F894FFCF000018
:100CA00000000402640191015102C201A001B401DB
:040CB0000D0A000029
:107E0000112484B714BE81FFF0D085E080938100F7
:107E100082E08093C00088E18093C10086E0809377
:107E2000C20080E18093C4008EE0C9D0259A86E02C
:107E300020E33CEF91E0309385002093840096BBD3
:107E4000B09BFECF1D9AA8958150A9F7CC24DD24C4
:107E500088248394B5E0AB2EA1E19A2EF3E0BF2EE7
:107E6000A2D0813461F49FD0082FAFD0023811F036
:107E7000013811F484E001C083E08DD089C08234E0
:107E800011F484E103C0853419F485E0A6D080C0E4
:107E9000853579F488D0E82EFF2485D0082F10E0AE
:107EA000102F00270E291F29000F111F8ED06801E7
:107EB0006FC0863521F484E090D080E0DECF843638
:107EC00009F040C070D06FD0082F6DD080E0C81688
:107ED00080E7D80618F4F601B7BEE895C0E0D1E017
:107EE00062D089930C17E1F7F0E0CF16F0E7DF06D8
:107EF00018F0F601B7BEE89568D007B600FCFDCFD4
:107F0000A601A0E0B1E02C9130E011968C91119780
:107F100090E0982F8827822B932B1296FA010C0160
:107F200087BEE89511244E5F5F4FF1E0A038BF0790
:107F300051F7F601A7BEE89507B600FCFDCF97BE46
:107F4000E89526C08437B1F42ED02DD0F82E2BD052
:107F50003CD0F601EF2C8F010F5F1F4F84911BD097
:107F6000EA94F801C1F70894C11CD11CFA94CF0C13
:107F7000D11C0EC0853739F428D08EE10CD085E9AC
:107F80000AD08FE07ACF813511F488E018D01DD067
:107F900080E101D065CF982F8091C00085FFFCCF94
:107FA0009093C60008958091C00087FFFCCF809118
:107FB000C00084FD01C0A8958091C6000895E0E648
:107FC000F0E098E1908380830895EDDF803219F02E
:107FD00088E0F5DFFFCF84E1DECF1F93182FE3DFCA
:107FE0001150E9F7F2DF1F91089580E0E8DFEE27F6
:047FF000FF270994CA
:027FFE00040479
:00000001FF
